{
  "contractName": "Owned",
  "abi": [
    {
      "constant": true,
      "inputs": [],
      "name": "owner",
      "outputs": [
        {
          "name": "",
          "type": "address"
        }
      ],
      "payable": false,
      "stateMutability": "view",
      "type": "function"
    },
    {
      "inputs": [],
      "payable": false,
      "stateMutability": "nonpayable",
      "type": "constructor"
    }
  ],
  "bytecode": "0x608060405234801561001057600080fd5b50336000806101000a81548173ffffffffffffffffffffffffffffffffffffffff021916908373ffffffffffffffffffffffffffffffffffffffff16021790555060e38061005f6000396000f3fe6080604052600436106039576000357c0100000000000000000000000000000000000000000000000000000000900480638da5cb5b14603e575b600080fd5b348015604957600080fd5b5060506092565b604051808273ffffffffffffffffffffffffffffffffffffffff1673ffffffffffffffffffffffffffffffffffffffff16815260200191505060405180910390f35b6000809054906101000a900473ffffffffffffffffffffffffffffffffffffffff168156fea165627a7a72305820d5f15ab2450d5d83914acb6fe5c72a6ffa9100440f683bc0f2475394c34407340029",
  "source": "pragma solidity 0.5;\n\ncontract Owned {\n    address public owner;\n    constructor() public {\n        owner = msg.sender;\n    }\n}\n\ncontract Splitter is Owned {\n    address public alice;\n    address payable public bob;\n    address payable public carol;\n    address private NULL_ADDRESS;\n\n    event LogAliceAddressChanged(address indexed previousAlice, address newAlice);\n    event LogBobAddressChanged(address indexed previousBob, address newBob);\n    event LogCarolAddressChanged(address indexed previousCarol, address newCarol);\n    event LogEtherSplit(uint amount);\n\n    constructor() public payable {\n        \n    }\n\n    function canChange(address toChange) private view returns (bool) {\n        return (msg.sender == toChange) || (msg.sender == owner);\n    }\n\n    function setAlice(address newAddress) public {\n        require(canChange(alice));\n        emit LogAliceAddressChanged(alice, newAddress);\n        alice = newAddress;\n    }\n\n    function setBob(address payable newAddress) public {\n        require(canChange(bob));\n        emit LogBobAddressChanged(bob, newAddress);\n        bob = newAddress;\n    }\n\n    function setCarol(address payable newAddress) public {\n        require(canChange(carol));\n        emit LogCarolAddressChanged(carol, newAddress);\n        carol = newAddress;\n    }\n\n    function split() public payable {\n        require(msg.sender == alice);\n        require(bob != NULL_ADDRESS);\n        require(carol != NULL_ADDRESS);\n        require(msg.value > 0);\n        require(address(this).balance >= msg.value);\n\n        emit LogEtherSplit(msg.value);\n        bob.transfer(msg.value / 2);\n        carol.transfer(msg.value / 2);\n    }\n}\n",
  "sourcePath": "/Users/brendon.cloyd/Development/DAPPS/splitter/contracts/Splitter.sol",
  "compiler": {
    "name": "solc",
    "version": "0.5.1+commit.c8a2cb62.Emscripten.clang"
  },
  "schemaVersion": "2.0.1",
  "updatedAt": "2018-12-10T21:59:58.651Z"
}