{
  "contractName": "Splitter",
  "abi": [
    {
      "constant": true,
      "inputs": [],
      "name": "carol",
      "outputs": [
        {
          "name": "",
          "type": "address"
        }
      ],
      "payable": false,
      "stateMutability": "view",
      "type": "function"
    },
    {
      "constant": true,
      "inputs": [],
      "name": "owner",
      "outputs": [
        {
          "name": "",
          "type": "address"
        }
      ],
      "payable": false,
      "stateMutability": "view",
      "type": "function"
    },
    {
      "constant": true,
      "inputs": [],
      "name": "bob",
      "outputs": [
        {
          "name": "",
          "type": "address"
        }
      ],
      "payable": false,
      "stateMutability": "view",
      "type": "function"
    },
    {
      "constant": true,
      "inputs": [],
      "name": "alice",
      "outputs": [
        {
          "name": "",
          "type": "address"
        }
      ],
      "payable": false,
      "stateMutability": "view",
      "type": "function"
    },
    {
      "inputs": [],
      "payable": true,
      "stateMutability": "payable",
      "type": "constructor"
    },
    {
      "anonymous": false,
      "inputs": [
        {
          "indexed": true,
          "name": "previousAlice",
          "type": "address"
        },
        {
          "indexed": false,
          "name": "newAlice",
          "type": "address"
        }
      ],
      "name": "LogAliceAddressChanged",
      "type": "event"
    },
    {
      "anonymous": false,
      "inputs": [
        {
          "indexed": true,
          "name": "previousBob",
          "type": "address"
        },
        {
          "indexed": false,
          "name": "newBob",
          "type": "address"
        }
      ],
      "name": "LogBobAddressChanged",
      "type": "event"
    },
    {
      "anonymous": false,
      "inputs": [
        {
          "indexed": true,
          "name": "previousCarol",
          "type": "address"
        },
        {
          "indexed": false,
          "name": "newCarol",
          "type": "address"
        }
      ],
      "name": "LogCarolAddressChanged",
      "type": "event"
    },
    {
      "anonymous": false,
      "inputs": [
        {
          "indexed": false,
          "name": "amount",
          "type": "uint256"
        }
      ],
      "name": "LogEtherSplit",
      "type": "event"
    },
    {
      "constant": false,
      "inputs": [
        {
          "name": "newAddress",
          "type": "address"
        }
      ],
      "name": "setAlice",
      "outputs": [],
      "payable": false,
      "stateMutability": "nonpayable",
      "type": "function"
    },
    {
      "constant": false,
      "inputs": [
        {
          "name": "newAddress",
          "type": "address"
        }
      ],
      "name": "setBob",
      "outputs": [],
      "payable": false,
      "stateMutability": "nonpayable",
      "type": "function"
    },
    {
      "constant": false,
      "inputs": [
        {
          "name": "newAddress",
          "type": "address"
        }
      ],
      "name": "setCarol",
      "outputs": [],
      "payable": false,
      "stateMutability": "nonpayable",
      "type": "function"
    },
    {
      "constant": false,
      "inputs": [],
      "name": "split",
      "outputs": [],
      "payable": true,
      "stateMutability": "payable",
      "type": "function"
    }
  ],
  "bytecode": "0x6080604052336000806101000a81548173ffffffffffffffffffffffffffffffffffffffff021916908373ffffffffffffffffffffffffffffffffffffffff160217905550610a2c806100536000396000f3fe608060405260043610610088576000357c0100000000000000000000000000000000000000000000000000000000900480630f2d74721461008d5780631d8a61f5146100de5780638b930f151461012f5780638da5cb5b14610186578063c09cec77146101dd578063d4fc89a514610234578063f765417614610285578063fb47e3a21461028f575b600080fd5b34801561009957600080fd5b506100dc600480360360208110156100b057600080fd5b81019080803573ffffffffffffffffffffffffffffffffffffffff1690602001909291905050506102e6565b005b3480156100ea57600080fd5b5061012d6004803603602081101561010157600080fd5b81019080803573ffffffffffffffffffffffffffffffffffffffff1690602001909291905050506103fc565b005b34801561013b57600080fd5b50610144610512565b604051808273ffffffffffffffffffffffffffffffffffffffff1673ffffffffffffffffffffffffffffffffffffffff16815260200191505060405180910390f35b34801561019257600080fd5b5061019b610538565b604051808273ffffffffffffffffffffffffffffffffffffffff1673ffffffffffffffffffffffffffffffffffffffff16815260200191505060405180910390f35b3480156101e957600080fd5b506101f261055d565b604051808273ffffffffffffffffffffffffffffffffffffffff1673ffffffffffffffffffffffffffffffffffffffff16815260200191505060405180910390f35b34801561024057600080fd5b506102836004803603602081101561025757600080fd5b81019080803573ffffffffffffffffffffffffffffffffffffffff169060200190929190505050610583565b005b61028d610699565b005b34801561029b57600080fd5b506102a461094b565b604051808273ffffffffffffffffffffffffffffffffffffffff1673ffffffffffffffffffffffffffffffffffffffff16815260200191505060405180910390f35b610311600160009054906101000a900473ffffffffffffffffffffffffffffffffffffffff16610971565b151561031c57600080fd5b600160009054906101000a900473ffffffffffffffffffffffffffffffffffffffff1673ffffffffffffffffffffffffffffffffffffffff167f212259831e86b2c32aa1befd3d763d5c24f3e64c38764a8dadc66c06c9be4bb482604051808273ffffffffffffffffffffffffffffffffffffffff1673ffffffffffffffffffffffffffffffffffffffff16815260200191505060405180910390a280600160006101000a81548173ffffffffffffffffffffffffffffffffffffffff021916908373ffffffffffffffffffffffffffffffffffffffff16021790555050565b610427600360009054906101000a900473ffffffffffffffffffffffffffffffffffffffff16610971565b151561043257600080fd5b600360009054906101000a900473ffffffffffffffffffffffffffffffffffffffff1673ffffffffffffffffffffffffffffffffffffffff167f65d9e228b82503aeadcad1d2184280d00847d83ca9bb29fbf2f35435155f593382604051808273ffffffffffffffffffffffffffffffffffffffff1673ffffffffffffffffffffffffffffffffffffffff16815260200191505060405180910390a280600360006101000a81548173ffffffffffffffffffffffffffffffffffffffff021916908373ffffffffffffffffffffffffffffffffffffffff16021790555050565b600360009054906101000a900473ffffffffffffffffffffffffffffffffffffffff1681565b6000809054906101000a900473ffffffffffffffffffffffffffffffffffffffff1681565b600260009054906101000a900473ffffffffffffffffffffffffffffffffffffffff1681565b6105ae600260009054906101000a900473ffffffffffffffffffffffffffffffffffffffff16610971565b15156105b957600080fd5b600260009054906101000a900473ffffffffffffffffffffffffffffffffffffffff1673ffffffffffffffffffffffffffffffffffffffff167f124e950d9b47b8f656062d67dce068b2ce9652bf33580770cd8285e3739eeb1582604051808273ffffffffffffffffffffffffffffffffffffffff1673ffffffffffffffffffffffffffffffffffffffff16815260200191505060405180910390a280600260006101000a81548173ffffffffffffffffffffffffffffffffffffffff021916908373ffffffffffffffffffffffffffffffffffffffff16021790555050565b600160009054906101000a900473ffffffffffffffffffffffffffffffffffffffff1673ffffffffffffffffffffffffffffffffffffffff163373ffffffffffffffffffffffffffffffffffffffff161415156106f557600080fd5b600460009054906101000a900473ffffffffffffffffffffffffffffffffffffffff1673ffffffffffffffffffffffffffffffffffffffff16600260009054906101000a900473ffffffffffffffffffffffffffffffffffffffff1673ffffffffffffffffffffffffffffffffffffffff161415151561077457600080fd5b600460009054906101000a900473ffffffffffffffffffffffffffffffffffffffff1673ffffffffffffffffffffffffffffffffffffffff16600360009054906101000a900473ffffffffffffffffffffffffffffffffffffffff1673ffffffffffffffffffffffffffffffffffffffff16141515156107f357600080fd5b60003411151561080257600080fd5b343073ffffffffffffffffffffffffffffffffffffffff16311015151561082857600080fd5b7f4fcdc818b24eee72a2b9ffcf93774039e50ad5c8f4c1419da69176ea5835188e346040518082815260200191505060405180910390a1600260009054906101000a900473ffffffffffffffffffffffffffffffffffffffff1673ffffffffffffffffffffffffffffffffffffffff166108fc6002348115156108a757fe5b049081150290604051600060405180830381858888f193505050501580156108d3573d6000803e3d6000fd5b50600360009054906101000a900473ffffffffffffffffffffffffffffffffffffffff1673ffffffffffffffffffffffffffffffffffffffff166108fc60023481151561091c57fe5b049081150290604051600060405180830381858888f19350505050158015610948573d6000803e3d6000fd5b50565b600160009054906101000a900473ffffffffffffffffffffffffffffffffffffffff1681565b60008173ffffffffffffffffffffffffffffffffffffffff163373ffffffffffffffffffffffffffffffffffffffff1614806109f957506000809054906101000a900473ffffffffffffffffffffffffffffffffffffffff1673ffffffffffffffffffffffffffffffffffffffff163373ffffffffffffffffffffffffffffffffffffffff16145b905091905056fea165627a7a72305820f0cbc565a2e8aaaf128568a368abd08b958f67adb7d07311fe35d10c5e9065350029",
  "source": "pragma solidity 0.5;\n\ncontract Owned {\n    address public owner;\n    constructor() public {\n        owner = msg.sender;\n    }\n}\n\ncontract Splitter is Owned {\n    address public alice;\n    address payable public bob;\n    address payable public carol;\n    address private NULL_ADDRESS;\n\n    event LogAliceAddressChanged(address indexed previousAlice, address newAlice);\n    event LogBobAddressChanged(address indexed previousBob, address newBob);\n    event LogCarolAddressChanged(address indexed previousCarol, address newCarol);\n    event LogEtherSplit(uint amount);\n\n    constructor() public payable {\n        \n    }\n\n    function canChange(address toChange) private view returns (bool) {\n        return (msg.sender == toChange) || (msg.sender == owner);\n    }\n\n    function setAlice(address newAddress) public {\n        require(canChange(alice));\n        emit LogAliceAddressChanged(alice, newAddress);\n        alice = newAddress;\n    }\n\n    function setBob(address payable newAddress) public {\n        require(canChange(bob));\n        emit LogBobAddressChanged(bob, newAddress);\n        bob = newAddress;\n    }\n\n    function setCarol(address payable newAddress) public {\n        require(canChange(carol));\n        emit LogCarolAddressChanged(carol, newAddress);\n        carol = newAddress;\n    }\n\n    function split() public payable {\n        require(msg.sender == alice);\n        require(bob != NULL_ADDRESS);\n        require(carol != NULL_ADDRESS);\n        require(msg.value > 0);\n        require(address(this).balance >= msg.value);\n\n        emit LogEtherSplit(msg.value);\n        bob.transfer(msg.value / 2);\n        carol.transfer(msg.value / 2);\n    }\n}\n",
  "sourcePath": "/Users/brendon.cloyd/Development/DAPPS/splitter/contracts/Splitter.sol",
  "compiler": {
    "name": "solc",
    "version": "0.5.1+commit.c8a2cb62.Emscripten.clang"
  },
  "schemaVersion": "2.0.1",
  "updatedAt": "2018-12-10T21:59:58.923Z"
}